{
  "_format": "hh-sol-artifact-1",
  "contractName": "Voting",
  "sourceName": "contracts/QuadVoting.sol",
  "abi": [
    {
      "inputs": [],
      "name": "TOKENS_PER_VOTE",
      "outputs": [
        {
          "internalType": "uint256",
          "name": "",
          "type": "uint256"
        }
      ],
      "stateMutability": "view",
      "type": "function"
    },
    {
      "inputs": [
        {
          "internalType": "string",
          "name": "_name",
          "type": "string"
        }
      ],
      "name": "addCandidate",
      "outputs": [],
      "stateMutability": "nonpayable",
      "type": "function"
    },
    {
      "inputs": [
        {
          "internalType": "uint256",
          "name": "",
          "type": "uint256"
        }
      ],
      "name": "candidates",
      "outputs": [
        {
          "internalType": "uint256",
          "name": "id",
          "type": "uint256"
        },
        {
          "internalType": "string",
          "name": "name",
          "type": "string"
        },
        {
          "internalType": "uint256",
          "name": "numberOfVotes",
          "type": "uint256"
        }
      ],
      "stateMutability": "view",
      "type": "function"
    },
    {
      "inputs": [],
      "name": "checkElectionPeriod",
      "outputs": [
        {
          "internalType": "bool",
          "name": "",
          "type": "bool"
        }
      ],
      "stateMutability": "view",
      "type": "function"
    },
    {
      "inputs": [],
      "name": "electionStarted",
      "outputs": [
        {
          "internalType": "bool",
          "name": "",
          "type": "bool"
        }
      ],
      "stateMutability": "view",
      "type": "function"
    },
    {
      "inputs": [],
      "name": "electionTimer",
      "outputs": [
        {
          "internalType": "uint256",
          "name": "",
          "type": "uint256"
        }
      ],
      "stateMutability": "view",
      "type": "function"
    },
    {
      "inputs": [
        {
          "internalType": "address",
          "name": "_voter",
          "type": "address"
        }
      ],
      "name": "getTokenBalance",
      "outputs": [
        {
          "internalType": "uint256",
          "name": "",
          "type": "uint256"
        }
      ],
      "stateMutability": "view",
      "type": "function"
    },
    {
      "inputs": [
        {
          "internalType": "address",
          "name": "",
          "type": "address"
        }
      ],
      "name": "hasVoted",
      "outputs": [
        {
          "internalType": "bool",
          "name": "",
          "type": "bool"
        }
      ],
      "stateMutability": "view",
      "type": "function"
    },
    {
      "inputs": [],
      "name": "owner",
      "outputs": [
        {
          "internalType": "address",
          "name": "",
          "type": "address"
        }
      ],
      "stateMutability": "view",
      "type": "function"
    },
    {
      "inputs": [],
      "name": "resetAllVoterTokens",
      "outputs": [],
      "stateMutability": "nonpayable",
      "type": "function"
    },
    {
      "inputs": [
        {
          "internalType": "string[]",
          "name": "_candidates",
          "type": "string[]"
        },
        {
          "internalType": "uint256",
          "name": "_duration",
          "type": "uint256"
        }
      ],
      "name": "startElection",
      "outputs": [],
      "stateMutability": "nonpayable",
      "type": "function"
    },
    {
      "inputs": [
        {
          "internalType": "uint256",
          "name": "_id",
          "type": "uint256"
        },
        {
          "internalType": "uint256",
          "name": "_tokens",
          "type": "uint256"
        }
      ],
      "name": "voteTo",
      "outputs": [],
      "stateMutability": "nonpayable",
      "type": "function"
    },
    {
      "inputs": [
        {
          "internalType": "address",
          "name": "",
          "type": "address"
        }
      ],
      "name": "voterTokens",
      "outputs": [
        {
          "internalType": "uint256",
          "name": "",
          "type": "uint256"
        }
      ],
      "stateMutability": "view",
      "type": "function"
    },
    {
      "inputs": [],
      "name": "votingEnd",
      "outputs": [
        {
          "internalType": "uint256",
          "name": "",
          "type": "uint256"
        }
      ],
      "stateMutability": "view",
      "type": "function"
    },
    {
      "inputs": [],
      "name": "votingStart",
      "outputs": [
        {
          "internalType": "uint256",
          "name": "",
          "type": "uint256"
        }
      ],
      "stateMutability": "view",
      "type": "function"
    }
  ],
  "bytecode": "0x608060405234801561001057600080fd5b50611938806100206000396000f3fe608060405234801561001057600080fd5b50600436106100f55760003560e01c8063752a092011610097578063b8bfcdcd11610066578063b8bfcdcd14610276578063d4a6cac814610280578063d5346da11461029e578063ea8ee5d0146102bc576100f5565b8063752a0920146102005780637c05fd8d1461021e57806385a386351461023a5780638da5cb5b14610258576100f5565b80633477ee2e116100d35780633477ee2e146101645780633aecd0e3146101965780633c9a4df3146101c6578063462e91ec146101e4576100f5565b806309eef43e146100fa5780630b56a6811461012a578063101158af14610146575b600080fd5b610114600480360381019061010f9190610d26565b6102ec565b6040516101219190610d6e565b60405180910390f35b610144600480360381019061013f9190610feb565b61030c565b005b61014e6104ec565b60405161015b9190611056565b60405180910390f35b61017e60048036038101906101799190611071565b6104f2565b60405161018d9392919061111d565b60405180910390f35b6101b060048036038101906101ab9190610d26565b6105b4565b6040516101bd9190611056565b60405180910390f35b6101ce6105fd565b6040516101db9190611056565b60405180910390f35b6101fe60048036038101906101f9919061115b565b610674565b005b610208610815565b6040516102159190611056565b60405180910390f35b610238600480360381019061023391906111a4565b61081a565b005b610242610a8e565b60405161024f9190611056565b60405180910390f35b610260610a94565b60405161026d91906111f3565b60405180910390f35b61027e610aba565b005b610288610baf565b6040516102959190610d6e565b60405180910390f35b6102a6610bd1565b6040516102b39190610d6e565b60405180910390f35b6102d660048036038101906102d19190610d26565b610be4565b6040516102e39190611056565b60405180910390f35b60036020528060005260406000206000915054906101000a900460ff1681565b600160009054906101000a900473ffffffffffffffffffffffffffffffffffffffff1673ffffffffffffffffffffffffffffffffffffffff163373ffffffffffffffffffffffffffffffffffffffff161461039c576040517f08c379a000000000000000000000000000000000000000000000000000000000815260040161039390611280565b60405180910390fd5b600660009054906101000a900460ff16156103ec576040517f08c379a00000000000000000000000000000000000000000000000000000000081526004016103e3906112ec565b60405180910390fd5b6000806103f99190610bfc565b610401610aba565b60005b82518110156104a757600060405180606001604052808381526020018584815181106104335761043261130c565b5b602002602001015181526020016000815250908060018154018082558091505060019003906000526020600020906003020160009091909190915060008201518160000155602082015181600101908161048d9190611547565b506040820151816002015550508080600101915050610404565b506001600660006101000a81548160ff02191690831515021790555042600481905550603c816104d79190611648565b426104e2919061168a565b6005819055505050565b60045481565b6000818154811061050257600080fd5b906000526020600020906003020160009150905080600001549080600101805461052b9061136a565b80601f01602080910402602001604051908101604052809291908181526020018280546105579061136a565b80156105a45780601f10610579576101008083540402835291602001916105a4565b820191906000526020600020905b81548152906001019060200180831161058757829003601f168201915b5050505050908060020154905083565b6000600260008373ffffffffffffffffffffffffffffffffffffffff1673ffffffffffffffffffffffffffffffffffffffff168152602001908152602001600020549050919050565b6000600660009054906101000a900460ff1661064e576040517f08c379a00000000000000000000000000000000000000000000000000000000081526004016106459061170a565b60405180910390fd5b60055442106106605760009050610671565b4260055461066e919061172a565b90505b90565b600160009054906101000a900473ffffffffffffffffffffffffffffffffffffffff1673ffffffffffffffffffffffffffffffffffffffff163373ffffffffffffffffffffffffffffffffffffffff1614610704576040517f08c379a00000000000000000000000000000000000000000000000000000000081526004016106fb90611280565b60405180910390fd5b600660009054906101000a900460ff16610753576040517f08c379a000000000000000000000000000000000000000000000000000000000815260040161074a9061170a565b60405180910390fd5b61075b610baf565b61079a576040517f08c379a0000000000000000000000000000000000000000000000000000000008152600401610791906117aa565b60405180910390fd5b600060405180606001604052806000805490508152602001838152602001600081525090806001815401808255809150506001900390600052602060002090600302016000909190919091506000820151816000015560208201518160010190816108059190611547565b5060408201518160020155505050565b600581565b600660009054906101000a900460ff16610869576040517f08c379a00000000000000000000000000000000000000000000000000000000081526004016108609061170a565b60405180910390fd5b610871610baf565b6108b0576040517f08c379a00000000000000000000000000000000000000000000000000000000081526004016108a7906117aa565b60405180910390fd5b600360003373ffffffffffffffffffffffffffffffffffffffff1673ffffffffffffffffffffffffffffffffffffffff16815260200190815260200160002060009054906101000a900460ff161561093d576040517f08c379a000000000000000000000000000000000000000000000000000000000815260040161093490611816565b60405180910390fd5b6000811180156109555750610951336105b4565b8111155b610994576040517f08c379a000000000000000000000000000000000000000000000000000000000815260040161098b90611882565b60405180910390fd5b6005816109a191906118d1565b600083815481106109b5576109b461130c565b5b906000526020600020906003020160020160008282546109d5919061168a565b9250508190555080600260003373ffffffffffffffffffffffffffffffffffffffff1673ffffffffffffffffffffffffffffffffffffffff1681526020019081526020016000206000828254610a2b919061172a565b925050819055506001600360003373ffffffffffffffffffffffffffffffffffffffff1673ffffffffffffffffffffffffffffffffffffffff16815260200190815260200160002060006101000a81548160ff0219169083151502179055505050565b60055481565b600160009054906101000a900473ffffffffffffffffffffffffffffffffffffffff1681565b600160009054906101000a900473ffffffffffffffffffffffffffffffffffffffff1673ffffffffffffffffffffffffffffffffffffffff163373ffffffffffffffffffffffffffffffffffffffff1614610b4a576040517f08c379a0000000000000000000000000000000000000000000000000000000008152600401610b4190611280565b60405180910390fd5b60005b600080549050811015610bac5760008181548110610b6e57610b6d61130c565b5b9060005260206000209060030201600080820160009055600182016000610b959190610c20565b600282016000905550508080600101915050610b4d565b50565b600080610bba6105fd565b1115610bc95760019050610bce565b600090505b90565b600660009054906101000a900460ff1681565b60026020528060005260406000206000915090505481565b5080546000825560030290600052602060002090810190610c1d9190610c60565b50565b508054610c2c9061136a565b6000825580601f10610c3e5750610c5d565b601f016020900490600052602060002090810190610c5c9190610c97565b5b50565b5b80821115610c9357600080820160009055600182016000610c829190610c20565b600282016000905550600301610c61565b5090565b5b80821115610cb0576000816000905550600101610c98565b5090565b6000604051905090565b600080fd5b600080fd5b600073ffffffffffffffffffffffffffffffffffffffff82169050919050565b6000610cf382610cc8565b9050919050565b610d0381610ce8565b8114610d0e57600080fd5b50565b600081359050610d2081610cfa565b92915050565b600060208284031215610d3c57610d3b610cbe565b5b6000610d4a84828501610d11565b91505092915050565b60008115159050919050565b610d6881610d53565b82525050565b6000602082019050610d836000830184610d5f565b92915050565b600080fd5b6000601f19601f8301169050919050565b7f4e487b7100000000000000000000000000000000000000000000000000000000600052604160045260246000fd5b610dd782610d8e565b810181811067ffffffffffffffff82111715610df657610df5610d9f565b5b80604052505050565b6000610e09610cb4565b9050610e158282610dce565b919050565b600067ffffffffffffffff821115610e3557610e34610d9f565b5b602082029050602081019050919050565b600080fd5b600080fd5b600067ffffffffffffffff821115610e6b57610e6a610d9f565b5b610e7482610d8e565b9050602081019050919050565b82818337600083830152505050565b6000610ea3610e9e84610e50565b610dff565b905082815260208101848484011115610ebf57610ebe610e4b565b5b610eca848285610e81565b509392505050565b600082601f830112610ee757610ee6610d89565b5b8135610ef7848260208601610e90565b91505092915050565b6000610f13610f0e84610e1a565b610dff565b90508083825260208201905060208402830185811115610f3657610f35610e46565b5b835b81811015610f7d57803567ffffffffffffffff811115610f5b57610f5a610d89565b5b808601610f688982610ed2565b85526020850194505050602081019050610f38565b5050509392505050565b600082601f830112610f9c57610f9b610d89565b5b8135610fac848260208601610f00565b91505092915050565b6000819050919050565b610fc881610fb5565b8114610fd357600080fd5b50565b600081359050610fe581610fbf565b92915050565b6000806040838503121561100257611001610cbe565b5b600083013567ffffffffffffffff8111156110205761101f610cc3565b5b61102c85828601610f87565b925050602061103d85828601610fd6565b9150509250929050565b61105081610fb5565b82525050565b600060208201905061106b6000830184611047565b92915050565b60006020828403121561108757611086610cbe565b5b600061109584828501610fd6565b91505092915050565b600081519050919050565b600082825260208201905092915050565b60005b838110156110d85780820151818401526020810190506110bd565b60008484015250505050565b60006110ef8261109e565b6110f981856110a9565b93506111098185602086016110ba565b61111281610d8e565b840191505092915050565b60006060820190506111326000830186611047565b818103602083015261114481856110e4565b90506111536040830184611047565b949350505050565b60006020828403121561117157611170610cbe565b5b600082013567ffffffffffffffff81111561118f5761118e610cc3565b5b61119b84828501610ed2565b91505092915050565b600080604083850312156111bb576111ba610cbe565b5b60006111c985828601610fd6565b92505060206111da85828601610fd6565b9150509250929050565b6111ed81610ce8565b82525050565b600060208201905061120860008301846111e4565b92915050565b7f4f6e6c79206f776e65722063616e2063616c6c20746869732066756e6374696f60008201527f6e00000000000000000000000000000000000000000000000000000000000000602082015250565b600061126a6021836110a9565b91506112758261120e565b604082019050919050565b600060208201905081810360008301526112998161125d565b9050919050565b7f456c656374696f6e2068617320616c7265616479207374617274656400000000600082015250565b60006112d6601c836110a9565b91506112e1826112a0565b602082019050919050565b60006020820190508181036000830152611305816112c9565b9050919050565b7f4e487b7100000000000000000000000000000000000000000000000000000000600052603260045260246000fd5b7f4e487b7100000000000000000000000000000000000000000000000000000000600052602260045260246000fd5b6000600282049050600182168061138257607f821691505b6020821081036113955761139461133b565b5b50919050565b60008190508160005260206000209050919050565b60006020601f8301049050919050565b600082821b905092915050565b6000600883026113fd7fffffffffffffffffffffffffffffffffffffffffffffffffffffffffffffffff826113c0565b61140786836113c0565b95508019841693508086168417925050509392505050565b6000819050919050565b600061144461143f61143a84610fb5565b61141f565b610fb5565b9050919050565b6000819050919050565b61145e83611429565b61147261146a8261144b565b8484546113cd565b825550505050565b600090565b61148761147a565b611492818484611455565b505050565b5b818110156114b6576114ab60008261147f565b600181019050611498565b5050565b601f8211156114fb576114cc8161139b565b6114d5846113b0565b810160208510156114e4578190505b6114f86114f0856113b0565b830182611497565b50505b505050565b600082821c905092915050565b600061151e60001984600802611500565b1980831691505092915050565b6000611537838361150d565b9150826002028217905092915050565b6115508261109e565b67ffffffffffffffff81111561156957611568610d9f565b5b611573825461136a565b61157e8282856114ba565b600060209050601f8311600181146115b1576000841561159f578287015190505b6115a9858261152b565b865550611611565b601f1984166115bf8661139b565b60005b828110156115e7578489015182556001820191506020850194506020810190506115c2565b868310156116045784890151611600601f89168261150d565b8355505b6001600288020188555050505b505050505050565b7f4e487b7100000000000000000000000000000000000000000000000000000000600052601160045260246000fd5b600061165382610fb5565b915061165e83610fb5565b925082820261166c81610fb5565b9150828204841483151761168357611682611619565b5b5092915050565b600061169582610fb5565b91506116a083610fb5565b92508282019050808211156116b8576116b7611619565b5b92915050565b7f456c656374696f6e20686173206e6f7420737461727465642079657400000000600082015250565b60006116f4601c836110a9565b91506116ff826116be565b602082019050919050565b60006020820190508181036000830152611723816116e7565b9050919050565b600061173582610fb5565b915061174083610fb5565b925082820390508181111561175857611757611619565b5b92915050565b7f456c656374696f6e20706572696f642068617320656e64656400000000000000600082015250565b60006117946019836110a9565b915061179f8261175e565b602082019050919050565b600060208201905081810360008301526117c381611787565b9050919050565b7f596f75206861766520616c726561647920766f74656400000000000000000000600082015250565b60006118006016836110a9565b915061180b826117ca565b602082019050919050565b6000602082019050818103600083015261182f816117f3565b9050919050565b7f496e76616c696420746f6b656e20616d6f756e74000000000000000000000000600082015250565b600061186c6014836110a9565b915061187782611836565b602082019050919050565b6000602082019050818103600083015261189b8161185f565b9050919050565b7f4e487b7100000000000000000000000000000000000000000000000000000000600052601260045260246000fd5b60006118dc82610fb5565b91506118e783610fb5565b9250826118f7576118f66118a2565b5b82820490509291505056fea2646970667358221220cd4297a815003c9393cc8a46751c942978692f11941635ddc3a4d59a13923dcb64736f6c63430008180033",
  "linkReferences": {},
  "deployedLinkReferences": {}
}